{
  "_format": "hh-sol-artifact-1",
  "contractName": "Library",
  "sourceName": "contracts/Library.sol",
  "abi": [
    {
      "inputs": [
        {
          "internalType": "address",
          "name": "_owner",
          "type": "address"
        }
      ],
      "stateMutability": "nonpayable",
      "type": "constructor"
    },
    {
      "inputs": [],
      "name": "incorrectId",
      "type": "error"
    },
    {
      "inputs": [
        {
          "internalType": "uint256",
          "name": "price",
          "type": "uint256"
        },
        {
          "internalType": "uint256",
          "name": "paid",
          "type": "uint256"
        }
      ],
      "name": "incorrectPrice",
      "type": "error"
    },
    {
      "inputs": [],
      "name": "not_owner",
      "type": "error"
    },
    {
      "anonymous": false,
      "inputs": [
        {
          "indexed": false,
          "internalType": "string",
          "name": "_name",
          "type": "string"
        },
        {
          "indexed": false,
          "internalType": "string",
          "name": "_Link",
          "type": "string"
        },
        {
          "indexed": false,
          "internalType": "string",
          "name": "_description",
          "type": "string"
        },
        {
          "indexed": false,
          "internalType": "string",
          "name": "_category",
          "type": "string"
        },
        {
          "indexed": false,
          "internalType": "uint256",
          "name": "price",
          "type": "uint256"
        }
      ],
      "name": "PublicUpload",
      "type": "event"
    },
    {
      "anonymous": false,
      "inputs": [
        {
          "indexed": false,
          "internalType": "address",
          "name": "_sharer",
          "type": "address"
        },
        {
          "indexed": false,
          "internalType": "string",
          "name": "_filename",
          "type": "string"
        },
        {
          "indexed": false,
          "internalType": "address",
          "name": "_to",
          "type": "address"
        }
      ],
      "name": "Share",
      "type": "event"
    },
    {
      "anonymous": false,
      "inputs": [
        {
          "indexed": false,
          "internalType": "address",
          "name": "_seller",
          "type": "address"
        },
        {
          "indexed": false,
          "internalType": "address",
          "name": "_buyer",
          "type": "address"
        },
        {
          "indexed": false,
          "internalType": "string",
          "name": "_name",
          "type": "string"
        },
        {
          "indexed": false,
          "internalType": "uint256",
          "name": "_price",
          "type": "uint256"
        }
      ],
      "name": "bought",
      "type": "event"
    },
    {
      "inputs": [
        {
          "internalType": "string",
          "name": "_name",
          "type": "string"
        },
        {
          "internalType": "string",
          "name": "_link",
          "type": "string"
        },
        {
          "internalType": "string",
          "name": "_description",
          "type": "string"
        },
        {
          "internalType": "string",
          "name": "_category",
          "type": "string"
        }
      ],
      "name": "PrivateUpload",
      "outputs": [],
      "stateMutability": "nonpayable",
      "type": "function"
    },
    {
      "inputs": [
        {
          "internalType": "uint256",
          "name": "_arrayID",
          "type": "uint256"
        }
      ],
      "name": "assetPrice",
      "outputs": [
        {
          "internalType": "uint256",
          "name": "",
          "type": "uint256"
        }
      ],
      "stateMutability": "view",
      "type": "function"
    },
    {
      "inputs": [
        {
          "internalType": "uint256",
          "name": "_arrayID",
          "type": "uint256"
        }
      ],
      "name": "buyItem",
      "outputs": [],
      "stateMutability": "payable",
      "type": "function"
    },
    {
      "inputs": [
        {
          "internalType": "address",
          "name": "_addr",
          "type": "address"
        }
      ],
      "name": "changeOwner",
      "outputs": [],
      "stateMutability": "nonpayable",
      "type": "function"
    },
    {
      "inputs": [
        {
          "internalType": "uint256",
          "name": "",
          "type": "uint256"
        }
      ],
      "name": "getContentById",
      "outputs": [
        {
          "internalType": "uint256",
          "name": "ID",
          "type": "uint256"
        },
        {
          "internalType": "string",
          "name": "name",
          "type": "string"
        },
        {
          "internalType": "string",
          "name": "Link",
          "type": "string"
        },
        {
          "internalType": "string",
          "name": "description",
          "type": "string"
        },
        {
          "internalType": "string",
          "name": "category",
          "type": "string"
        },
        {
          "internalType": "address",
          "name": "seller",
          "type": "address"
        },
        {
          "internalType": "uint256",
          "name": "price",
          "type": "uint256"
        }
      ],
      "stateMutability": "view",
      "type": "function"
    },
    {
      "inputs": [],
      "name": "privateCount",
      "outputs": [
        {
          "internalType": "uint256",
          "name": "",
          "type": "uint256"
        }
      ],
      "stateMutability": "view",
      "type": "function"
    },
    {
      "inputs": [],
      "name": "publicCount",
      "outputs": [
        {
          "internalType": "uint256",
          "name": "",
          "type": "uint256"
        }
      ],
      "stateMutability": "view",
      "type": "function"
    },
    {
      "inputs": [
        {
          "internalType": "uint256",
          "name": "",
          "type": "uint256"
        }
      ],
      "name": "publicLib",
      "outputs": [
        {
          "internalType": "uint256",
          "name": "ID",
          "type": "uint256"
        },
        {
          "internalType": "string",
          "name": "name",
          "type": "string"
        },
        {
          "internalType": "string",
          "name": "Link",
          "type": "string"
        },
        {
          "internalType": "string",
          "name": "description",
          "type": "string"
        },
        {
          "internalType": "string",
          "name": "category",
          "type": "string"
        },
        {
          "internalType": "address",
          "name": "seller",
          "type": "address"
        },
        {
          "internalType": "uint256",
          "name": "price",
          "type": "uint256"
        }
      ],
      "stateMutability": "view",
      "type": "function"
    },
    {
      "inputs": [
        {
          "internalType": "uint256",
          "name": "_ID",
          "type": "uint256"
        },
        {
          "internalType": "uint256",
          "name": "_price",
          "type": "uint256"
        }
      ],
      "name": "publicSale",
      "outputs": [],
      "stateMutability": "nonpayable",
      "type": "function"
    },
    {
      "inputs": [
        {
          "internalType": "string",
          "name": "_name",
          "type": "string"
        },
        {
          "internalType": "string",
          "name": "_Link",
          "type": "string"
        },
        {
          "internalType": "string",
          "name": "_description",
          "type": "string"
        },
        {
          "internalType": "string",
          "name": "_category",
          "type": "string"
        }
      ],
      "name": "publicUpload",
      "outputs": [
        {
          "internalType": "string",
          "name": "",
          "type": "string"
        }
      ],
      "stateMutability": "nonpayable",
      "type": "function"
    },
    {
      "inputs": [
        {
          "internalType": "address[]",
          "name": "_to",
          "type": "address[]"
        },
        {
          "internalType": "uint256",
          "name": "_ID",
          "type": "uint256"
        }
      ],
      "name": "share",
      "outputs": [
        {
          "internalType": "string",
          "name": "",
          "type": "string"
        }
      ],
      "stateMutability": "nonpayable",
      "type": "function"
    },
    {
      "inputs": [],
      "name": "viewPrivateLib",
      "outputs": [
        {
          "components": [
            {
              "internalType": "uint256",
              "name": "ID",
              "type": "uint256"
            },
            {
              "internalType": "string",
              "name": "name",
              "type": "string"
            },
            {
              "internalType": "string",
              "name": "Link",
              "type": "string"
            },
            {
              "internalType": "string",
              "name": "description",
              "type": "string"
            },
            {
              "internalType": "string",
              "name": "category",
              "type": "string"
            },
            {
              "internalType": "address",
              "name": "seller",
              "type": "address"
            },
            {
              "internalType": "uint256",
              "name": "price",
              "type": "uint256"
            }
          ],
          "internalType": "struct Library.content[]",
          "name": "",
          "type": "tuple[]"
        }
      ],
      "stateMutability": "view",
      "type": "function"
    },
    {
      "inputs": [],
      "name": "viewPublicLib",
      "outputs": [
        {
          "components": [
            {
              "internalType": "uint256",
              "name": "ID",
              "type": "uint256"
            },
            {
              "internalType": "string",
              "name": "name",
              "type": "string"
            },
            {
              "internalType": "string",
              "name": "Link",
              "type": "string"
            },
            {
              "internalType": "string",
              "name": "description",
              "type": "string"
            },
            {
              "internalType": "string",
              "name": "category",
              "type": "string"
            },
            {
              "internalType": "address",
              "name": "seller",
              "type": "address"
            },
            {
              "internalType": "uint256",
              "name": "price",
              "type": "uint256"
            }
          ],
          "internalType": "struct Library.content[]",
          "name": "",
          "type": "tuple[]"
        }
      ],
      "stateMutability": "view",
      "type": "function"
    },
    {
      "inputs": [],
      "name": "withdraw",
      "outputs": [],
      "stateMutability": "nonpayable",
      "type": "function"
    }
  ],
  "bytecode": "0x60806040526000805560006001553480156200001a57600080fd5b5060405162002caa38038062002caa8339810160408190526200003d9162000063565b600280546001600160a01b0319166001600160a01b039290921691909117905562000095565b6000602082840312156200007657600080fd5b81516001600160a01b03811681146200008e57600080fd5b9392505050565b612c0580620000a56000396000f3fe6080604052600436106100dd5760003560e01c806357f745441161007f578063d206ff1c11610059578063d206ff1c1461023e578063e1d6ba3a1461025e578063e785a8c514610273578063e7fb74c71461029357600080fd5b806357f74544146101db578063a6f9dae1146101f1578063bc3be2f21461021157600080fd5b80632c051122116100bb5780632c051122146101645780632f96bd69146101865780633ccfd60b146101a65780635796a159146101bb57600080fd5b80630750b249146100e25780630e503a7f1461010d57806312b468b214610131575b600080fd5b3480156100ee57600080fd5b506100f76102a6565b6040516101049190612653565b60405180910390f35b34801561011957600080fd5b5061012360015481565b604051908152602001610104565b34801561013d57600080fd5b5061015161014c366004612737565b610585565b6040516101049796959493929190612750565b34801561017057600080fd5b5061018461017f36600461280c565b6107ea565b005b34801561019257600080fd5b506101846101a13660046128d0565b610bab565b3480156101b257600080fd5b5061018461101b565b3480156101c757600080fd5b506101516101d6366004612737565b611075565b3480156101e757600080fd5b5061012360005481565b3480156101fd57600080fd5b5061018461020c3660046128f2565b6110aa565b34801561021d57600080fd5b5061023161022c36600461280c565b6110f7565b604051610104919061291b565b34801561024a57600080fd5b50610123610259366004612737565b6113ac565b34801561026a57600080fd5b506100f7611656565b34801561027f57600080fd5b5061023161028e36600461292e565b611921565b6101846102a1366004612737565b611fd7565b336000908152600460209081526040808320805482518185028101850190935280835260609492939192909184015b8282101561057c57838290600052602060002090600702016040518060e001604052908160008201548152602001600182018054610312906129a9565b80601f016020809104026020016040519081016040528092919081815260200182805461033e906129a9565b801561038b5780601f106103605761010080835404028352916020019161038b565b820191906000526020600020905b81548152906001019060200180831161036e57829003601f168201915b505050505081526020016002820180546103a4906129a9565b80601f01602080910402602001604051908101604052809291908181526020018280546103d0906129a9565b801561041d5780601f106103f25761010080835404028352916020019161041d565b820191906000526020600020905b81548152906001019060200180831161040057829003601f168201915b50505050508152602001600382018054610436906129a9565b80601f0160208091040260200160405190810160405280929190818152602001828054610462906129a9565b80156104af5780601f10610484576101008083540402835291602001916104af565b820191906000526020600020905b81548152906001019060200180831161049257829003601f168201915b505050505081526020016004820180546104c8906129a9565b80601f01602080910402602001604051908101604052809291908181526020018280546104f4906129a9565b80156105415780601f1061051657610100808354040283529160200191610541565b820191906000526020600020905b81548152906001019060200180831161052457829003601f168201915b505050918352505060058201546001600160a01b031660208083019190915260069092015460409091015290825260019290920191016102d5565b50505050905090565b600560205260009081526040902080546001820180549192916105a7906129a9565b80601f01602080910402602001604051908101604052809291908181526020018280546105d3906129a9565b80156106205780601f106105f557610100808354040283529160200191610620565b820191906000526020600020905b81548152906001019060200180831161060357829003601f168201915b505050505090806002018054610635906129a9565b80601f0160208091040260200160405190810160405280929190818152602001828054610661906129a9565b80156106ae5780601f10610683576101008083540402835291602001916106ae565b820191906000526020600020905b81548152906001019060200180831161069157829003601f168201915b5050505050908060030180546106c3906129a9565b80601f01602080910402602001604051908101604052809291908181526020018280546106ef906129a9565b801561073c5780601f106107115761010080835404028352916020019161073c565b820191906000526020600020905b81548152906001019060200180831161071f57829003601f168201915b505050505090806004018054610751906129a9565b80601f016020809104026020016040519081016040528092919081815260200182805461077d906129a9565b80156107ca5780601f1061079f576101008083540402835291602001916107ca565b820191906000526020600020905b8154815290600101906020018083116107ad57829003601f168201915b50505050600583015460069093015491926001600160a01b031691905087565b6000805490806107f9836129fa565b91905055506000805490506040518060e001604052808281526020018a8a8080601f016020809104026020016040519081016040528093929190818152602001838380828437600092019190915250505090825250604080516020601f8b0181900481028201810190925289815291810191908a908a9081908401838280828437600092019190915250505090825250604080516020601f890181900481028201810190925287815291810191908890889081908401838280828437600092019190915250505090825250604080516020601f87018190048102820181019092528581529181019190869086908190840183828082843760009201829052509385525050336020808501829052604094850184905290835260038152838320835484528152929091208351815583830151805191936109409350600185019291019061256d565b506040820151805161095c91600284019160209091019061256d565b506060820151805161097891600384019160209091019061256d565b506080820151805161099491600484019160209091019061256d565b5060a08201516005820180546001600160a01b0319166001600160a01b0390921691909117905560c09091015160069091015533600090815260046020908152604091829020825160e0810184528481528351601f8d018490048402810184019094528b84529092909182810191908d908d9081908401838280828437600092019190915250505090825250604080516020601f8c018190048102820181019092528a815291810191908b908b9081908401838280828437600092019190915250505090825250604080516020601f8a0181900481028201810190925288815291810191908990899081908401838280828437600092019190915250505090825250604080516020601f880181900481028201810190925286815291810191908790879081908401838280828437600092018290525093855250503360208085019190915260409093018290525083546001818101865594825290829020835160079092020190815582820151805193949193610b199392850192919091019061256d565b5060408201518051610b3591600284019160209091019061256d565b5060608201518051610b5191600384019160209091019061256d565b5060808201518051610b6d91600484019160209091019061256d565b5060a08201516005820180546001600160a01b0319166001600160a01b0390921691909117905560c090910151600690910155505050505050505050565b3360009081526003602090815260408083208584529091529020600501546001600160a01b031615611002573360009081526003602090815260408083208584528252808320815160e08101909252805482526001810180549293919291840191610c15906129a9565b80601f0160208091040260200160405190810160405280929190818152602001828054610c41906129a9565b8015610c8e5780601f10610c6357610100808354040283529160200191610c8e565b820191906000526020600020905b815481529060010190602001808311610c7157829003601f168201915b50505050508152602001600282018054610ca7906129a9565b80601f0160208091040260200160405190810160405280929190818152602001828054610cd3906129a9565b8015610d205780601f10610cf557610100808354040283529160200191610d20565b820191906000526020600020905b815481529060010190602001808311610d0357829003601f168201915b50505050508152602001600382018054610d39906129a9565b80601f0160208091040260200160405190810160405280929190818152602001828054610d65906129a9565b8015610db25780601f10610d8757610100808354040283529160200191610db2565b820191906000526020600020905b815481529060010190602001808311610d9557829003601f168201915b50505050508152602001600482018054610dcb906129a9565b80601f0160208091040260200160405190810160405280929190818152602001828054610df7906129a9565b8015610e445780601f10610e1957610100808354040283529160200191610e44565b820191906000526020600020905b815481529060010190602001808311610e2757829003601f168201915b505050918352505060058201546001600160a01b0316602080830191909152600692830154604092830152815160e0810183528451815284820151818301908152858401519382019390935260608086015190820152608080860151908201523360a082015260c081018790528354600181018555600094909452805160079094027ff652222313e28459528d920b65115c16c04f3efc82aaedc97be59f3f377c0d3f8101948555925180519596509094610f26937ff652222313e28459528d920b65115c16c04f3efc82aaedc97be59f3f377c0d400192919091019061256d565b5060408201518051610f4291600284019160209091019061256d565b5060608201518051610f5e91600384019160209091019061256d565b5060808201518051610f7a91600484019160209091019061256d565b5060a08201516005820180546001600160a01b0319166001600160a01b0390921691909117905560c09091015160069091015560208101516040808301516060840151608085015192517f8c616152418d49bf1aeee9e55d978959db5ff781d551608fab33b5c912b2094894610ff594909392918890612a15565b60405180910390a1505050565b604051637cb49f8d60e01b815260040160405180910390fd5b6002546001600160a01b0316331461104657604051633d49598160e21b815260040160405180910390fd5b60405133904780156108fc02916000818181858888f19350505050158015611072573d6000803e3d6000fd5b50565b6006818154811061108557600080fd5b600091825260209091206007909102018054600182018054919350906105a7906129a9565b6002546001600160a01b031633146110d557604051633d49598160e21b815260040160405180910390fd5b600280546001600160a01b0319166001600160a01b0392909216919091179055565b600180546060916000611109836129fa565b91905055506000600154905060006040518060e001604052808381526020018c8c8080601f016020809104026020016040519081016040528093929190818152602001838380828437600092019190915250505090825250604080516020601f8d018190048102820181019092528b815291810191908c908c9081908401838280828437600092019190915250505090825250604080516020601f8b0181900481028201810190925289815291810191908a908a9081908401838280828437600092019190915250505090825250604080516020601f890181900481028201810190925287815291810191908890889081908401838280828437600092018290525093855250503360208085019190915260409093018290525060068054600181018255915282517ff652222313e28459528d920b65115c16c04f3efc82aaedc97be59f3f377c0d3f600790920291820190815583830151805194955085949193611299937ff652222313e28459528d920b65115c16c04f3efc82aaedc97be59f3f377c0d40019291019061256d565b50604082015180516112b591600284019160209091019061256d565b50606082015180516112d191600384019160209091019061256d565b50608082015180516112ed91600484019160209091019061256d565b5060a08201516005820180546001600160a01b0319166001600160a01b0390921691909117905560c0909101516006909101556040517f8c616152418d49bf1aeee9e55d978959db5ff781d551608fab33b5c912b2094890611361908d908d908d908d908d908d908d908d90600090612a9e565b60405180910390a1505060408051808201909152601781527f416464656420746f205075626c6963204c69627261727900000000000000000060208201529998505050505050505050565b600080600683815481106113c2576113c2612b06565b90600052602060002090600702016040518060e0016040529081600082015481526020016001820180546113f5906129a9565b80601f0160208091040260200160405190810160405280929190818152602001828054611421906129a9565b801561146e5780601f106114435761010080835404028352916020019161146e565b820191906000526020600020905b81548152906001019060200180831161145157829003601f168201915b50505050508152602001600282018054611487906129a9565b80601f01602080910402602001604051908101604052809291908181526020018280546114b3906129a9565b80156115005780601f106114d557610100808354040283529160200191611500565b820191906000526020600020905b8154815290600101906020018083116114e357829003601f168201915b50505050508152602001600382018054611519906129a9565b80601f0160208091040260200160405190810160405280929190818152602001828054611545906129a9565b80156115925780601f1061156757610100808354040283529160200191611592565b820191906000526020600020905b81548152906001019060200180831161157557829003601f168201915b505050505081526020016004820180546115ab906129a9565b80601f01602080910402602001604051908101604052809291908181526020018280546115d7906129a9565b80156116245780601f106115f957610100808354040283529160200191611624565b820191906000526020600020905b81548152906001019060200180831161160757829003601f168201915b505050918352505060058201546001600160a01b0316602082015260069091015460409091015260c001519392505050565b60606006805480602002602001604051908101604052809291908181526020016000905b8282101561057c57838290600052602060002090600702016040518060e0016040529081600082015481526020016001820180546116b7906129a9565b80601f01602080910402602001604051908101604052809291908181526020018280546116e3906129a9565b80156117305780601f1061170557610100808354040283529160200191611730565b820191906000526020600020905b81548152906001019060200180831161171357829003601f168201915b50505050508152602001600282018054611749906129a9565b80601f0160208091040260200160405190810160405280929190818152602001828054611775906129a9565b80156117c25780601f10611797576101008083540402835291602001916117c2565b820191906000526020600020905b8154815290600101906020018083116117a557829003601f168201915b505050505081526020016003820180546117db906129a9565b80601f0160208091040260200160405190810160405280929190818152602001828054611807906129a9565b80156118545780601f1061182957610100808354040283529160200191611854565b820191906000526020600020905b81548152906001019060200180831161183757829003601f168201915b5050505050815260200160048201805461186d906129a9565b80601f0160208091040260200160405190810160405280929190818152602001828054611899906129a9565b80156118e65780601f106118bb576101008083540402835291602001916118e6565b820191906000526020600020905b8154815290600101906020018083116118c957829003601f168201915b505050918352505060058201546001600160a01b0316602080830191909152600690920154604090910152908252600192909201910161167a565b3360009081526003602090815260408083208484529091529020600501546060906001600160a01b031615611002573360009081526003602090815260408083208584528252808320815160e0810190925280548252600181018054929391929184019161198e906129a9565b80601f01602080910402602001604051908101604052809291908181526020018280546119ba906129a9565b8015611a075780601f106119dc57610100808354040283529160200191611a07565b820191906000526020600020905b8154815290600101906020018083116119ea57829003601f168201915b50505050508152602001600282018054611a20906129a9565b80601f0160208091040260200160405190810160405280929190818152602001828054611a4c906129a9565b8015611a995780601f10611a6e57610100808354040283529160200191611a99565b820191906000526020600020905b815481529060010190602001808311611a7c57829003601f168201915b50505050508152602001600382018054611ab2906129a9565b80601f0160208091040260200160405190810160405280929190818152602001828054611ade906129a9565b8015611b2b5780601f10611b0057610100808354040283529160200191611b2b565b820191906000526020600020905b815481529060010190602001808311611b0e57829003601f168201915b50505050508152602001600482018054611b44906129a9565b80601f0160208091040260200160405190810160405280929190818152602001828054611b70906129a9565b8015611bbd5780601f10611b9257610100808354040283529160200191611bbd565b820191906000526020600020905b815481529060010190602001808311611ba057829003601f168201915b505050918352505060058201546001600160a01b0316602082015260069091015460409091015290508360005b81811015611fab576000878783818110611c0657611c06612b06565b9050602002016020810190611c1b91906128f2565b6001600160a01b03161415611c775760405162461bcd60e51b815260206004820152601e60248201527f796f752063616e7420736861726520746f207a65726f2061646472657373000060448201526064015b60405180910390fd5b6040518060e0016040528084600001518152602001846020015181526020018460400151815260200184606001518152602001846080015181526020018460a001516001600160a01b031681526020018460c0015181525060036000898985818110611ce557611ce5612b06565b9050602002016020810190611cfa91906128f2565b6001600160a01b0316815260208082019290925260409081016000908120898252835220825181558282015180519192611d3c9260018501929091019061256d565b5060408201518051611d5891600284019160209091019061256d565b5060608201518051611d7491600384019160209091019061256d565b5060808201518051611d9091600484019160209091019061256d565b5060a08201516005820180546001600160a01b0319166001600160a01b0390921691909117905560c09091015160069091015560046000888884818110611dd957611dd9612b06565b9050602002016020810190611dee91906128f2565b6001600160a01b03166001600160a01b031681526020019081526020016000206040518060e0016040528085600001518152602001856020015181526020018560400151815260200185606001518152602001856080015181526020018560a001516001600160a01b031681526020018560c001518152509080600181540180825580915050600190039060005260206000209060070201600090919091909150600082015181600001556020820151816001019080519060200190611eb592919061256d565b5060408201518051611ed191600284019160209091019061256d565b5060608201518051611eed91600384019160209091019061256d565b5060808201518051611f0991600484019160209091019061256d565b5060a08201516005820180546001600160a01b0319166001600160a01b0390921691909117905560c09091015160069091015560208301517ff1f97644afaf6c5d7ed1c4d708881882699c6a072166e544c0f17cdb60c6aac6903390898985818110611f7757611f77612b06565b9050602002016020810190611f8c91906128f2565b604051611f9b93929190612b1c565b60405180910390a1600101611bea565b50604051806040016040528060068152602001651cda185c995960d21b815250925050505b9392505050565b600060068281548110611fec57611fec612b06565b90600052602060002090600702016040518060e00160405290816000820154815260200160018201805461201f906129a9565b80601f016020809104026020016040519081016040528092919081815260200182805461204b906129a9565b80156120985780601f1061206d57610100808354040283529160200191612098565b820191906000526020600020905b81548152906001019060200180831161207b57829003601f168201915b505050505081526020016002820180546120b1906129a9565b80601f01602080910402602001604051908101604052809291908181526020018280546120dd906129a9565b801561212a5780601f106120ff5761010080835404028352916020019161212a565b820191906000526020600020905b81548152906001019060200180831161210d57829003601f168201915b50505050508152602001600382018054612143906129a9565b80601f016020809104026020016040519081016040528092919081815260200182805461216f906129a9565b80156121bc5780601f10612191576101008083540402835291602001916121bc565b820191906000526020600020905b81548152906001019060200180831161219f57829003601f168201915b505050505081526020016004820180546121d5906129a9565b80601f0160208091040260200160405190810160405280929190818152602001828054612201906129a9565b801561224e5780601f106122235761010080835404028352916020019161224e565b820191906000526020600020905b81548152906001019060200180831161223157829003601f168201915b505050918352505060058201546001600160a01b0316602082015260069091015460409091015260c08101519091503481146122a657604051634a35d14360e11b815260048101829052346024820152604401611c6e565b6040805160e081018252835181526020808501518183019081528584015183850152606080870151908401526080808701519084015260a0808701516001600160a01b03169084015260c080870151908401523360009081526003835284812087518252835293909320825181559251805192939261232b926001850192019061256d565b506040820151805161234791600284019160209091019061256d565b506060820151805161236391600384019160209091019061256d565b506080820151805161237f91600484019160209091019061256d565b5060a0828101516005830180546001600160a01b0319166001600160a01b0392831617905560c093840151600690930192909255336000908152600460209081526040808320815160e08101835289518152898401518185019081528a840151938201939093526060808b0151908201526080808b01519082015289860151909616948601949094528786015195850195909552825460018181018555938352918190208451600790930201918255935180519394919361244793850192919091019061256d565b506040820151805161246391600284019160209091019061256d565b506060820151805161247f91600384019160209091019061256d565b506080820151805161249b91600484019160209091019061256d565b5060a0828101516005830180546001600160a01b0319166001600160a01b0390921691909117905560c0928301516006909201919091558301516020840151918401516040517f846ee2f0ebf78e528b652cafedcfdb5012325beb8f5fee7f31898f31998cfc369361250f93923392612b51565b60405180910390a160a08201516001600160a01b03166108fc606461253584605f612b8e565b61253f9190612bad565b6040518115909202916000818181858888f19350505050158015612567573d6000803e3d6000fd5b50505050565b828054612579906129a9565b90600052602060002090601f01602090048101928261259b57600085556125e1565b82601f106125b457805160ff19168380011785556125e1565b828001600101855582156125e1579182015b828111156125e15782518255916020019190600101906125c6565b506125ed9291506125f1565b5090565b5b808211156125ed57600081556001016125f2565b6000815180845260005b8181101561262c57602081850181015186830182015201612610565b8181111561263e576000602083870101525b50601f01601f19169290920160200192915050565b60006020808301818452808551808352604092508286019150828160051b87010184880160005b8381101561272957603f19898403018552815160e08151855288820151818a8701526126a882870182612606565b91505087820151858203898701526126c08282612606565b915050606080830151868303828801526126da8382612606565b92505050608080830151868303828801526126f58382612606565b60a0858101516001600160a01b03169089015260c0948501519490970193909352505050938601939086019060010161267a565b509098975050505050505050565b60006020828403121561274957600080fd5b5035919050565b87815260e06020820152600061276960e0830189612606565b828103604084015261277b8189612606565b9050828103606084015261278f8188612606565b905082810360808401526127a38187612606565b6001600160a01b039590951660a0840152505060c0015295945050505050565b60008083601f8401126127d557600080fd5b50813567ffffffffffffffff8111156127ed57600080fd5b60208301915083602082850101111561280557600080fd5b9250929050565b6000806000806000806000806080898b03121561282857600080fd5b883567ffffffffffffffff8082111561284057600080fd5b61284c8c838d016127c3565b909a50985060208b013591508082111561286557600080fd5b6128718c838d016127c3565b909850965060408b013591508082111561288a57600080fd5b6128968c838d016127c3565b909650945060608b01359150808211156128af57600080fd5b506128bc8b828c016127c3565b999c989b5096995094979396929594505050565b600080604083850312156128e357600080fd5b50508035926020909101359150565b60006020828403121561290457600080fd5b81356001600160a01b0381168114611fd057600080fd5b602081526000611fd06020830184612606565b60008060006040848603121561294357600080fd5b833567ffffffffffffffff8082111561295b57600080fd5b818601915086601f83011261296f57600080fd5b81358181111561297e57600080fd5b8760208260051b850101111561299357600080fd5b6020928301989097509590910135949350505050565b600181811c908216806129bd57607f821691505b602082108114156129de57634e487b7160e01b600052602260045260246000fd5b50919050565b634e487b7160e01b600052601160045260246000fd5b6000600019821415612a0e57612a0e6129e4565b5060010190565b60a081526000612a2860a0830188612606565b8281036020840152612a3a8188612606565b90508281036040840152612a4e8187612606565b90508281036060840152612a628186612606565b9150508260808301529695505050505050565b81835281816020850137506000828201602090810191909152601f909101601f19169091010190565b60a081526000612ab260a083018b8d612a75565b8281036020840152612ac5818a8c612a75565b90508281036040840152612ada81888a612a75565b90508281036060840152612aef818688612a75565b9150508260808301529a9950505050505050505050565b634e487b7160e01b600052603260045260246000fd5b600060018060a01b03808616835260606020840152612b3e6060840186612606565b9150808416604084015250949350505050565b6001600160a01b03858116825284166020820152608060408201819052600090612b7d90830185612606565b905082606083015295945050505050565b6000816000190483118215151615612ba857612ba86129e4565b500290565b600082612bca57634e487b7160e01b600052601260045260246000fd5b50049056fea26469706673582212209ab0b5432cc1226020522215e4859ed757f0bbbee8e647e6502dac292504698d64736f6c634300080c0033",
  "linkReferences": {},
  "deployedLinkReferences": {}
}